{
	"w2-2/Score.sol": {
		"Score": {
			"abi": [
				{
					"inputs": [],
					"stateMutability": "nonpayable",
					"type": "constructor"
				},
				{
					"inputs": [],
					"name": "createTeacher",
					"outputs": [
						{
							"internalType": "address",
							"name": "",
							"type": "address"
						}
					],
					"stateMutability": "view",
					"type": "function"
				},
				{
					"inputs": [
						{
							"internalType": "uint256",
							"name": "score",
							"type": "uint256"
						}
					],
					"name": "setScore",
					"outputs": [],
					"stateMutability": "nonpayable",
					"type": "function"
				}
			],
			"devdoc": {
				"kind": "dev",
				"methods": {},
				"version": 1
			},
			"evm": {
				"assembly": "    /* \"w2-2/Score.sol\":90:965  contract Score {... */\n  mstore(0x40, 0x80)\n    /* \"w2-2/Score.sol\":152:173  constructor() {... */\n  callvalue\n  dup1\n  iszero\n  tag_1\n  jumpi\n  0x00\n  dup1\n  revert\ntag_1:\n  pop\n    /* \"w2-2/Score.sol\":90:965  contract Score {... */\n  dataSize(sub_0)\n  dup1\n  dataOffset(sub_0)\n  0x00\n  codecopy\n  0x00\n  return\nstop\n\nsub_0: assembly {\n        /* \"w2-2/Score.sol\":90:965  contract Score {... */\n      mstore(0x40, 0x80)\n      callvalue\n      dup1\n      iszero\n      tag_1\n      jumpi\n      0x00\n      dup1\n      revert\n    tag_1:\n      pop\n      jumpi(tag_2, lt(calldatasize, 0x04))\n      shr(0xe0, calldataload(0x00))\n      dup1\n      0x422beeba\n      eq\n      tag_3\n      jumpi\n      dup1\n      0xa40c3f8c\n      eq\n      tag_4\n      jumpi\n    tag_2:\n      0x00\n      dup1\n      revert\n        /* \"w2-2/Score.sol\":203:385  function setScore(uint256 score) external isTeacher(msg.sender){... */\n    tag_3:\n      tag_5\n      0x04\n      dup1\n      calldatasize\n      sub\n      dup2\n      add\n      swap1\n      tag_6\n      swap2\n      swap1\n      tag_7\n      jump\t// in\n    tag_6:\n      tag_8\n      jump\t// in\n    tag_5:\n      stop\n        /* \"w2-2/Score.sol\":580:958  function createTeacher() public view returns (address) {... */\n    tag_4:\n      tag_9\n      tag_10\n      jump\t// in\n    tag_9:\n      mload(0x40)\n      tag_11\n      swap2\n      swap1\n      tag_12\n      jump\t// in\n    tag_11:\n      mload(0x40)\n      dup1\n      swap2\n      sub\n      swap1\n      return\n        /* \"w2-2/Score.sol\":203:385  function setScore(uint256 score) external isTeacher(msg.sender){... */\n    tag_8:\n        /* \"w2-2/Score.sol\":255:265  msg.sender */\n      caller\n        /* \"w2-2/Score.sol\":456:471  createTeacher() */\n      tag_14\n        /* \"w2-2/Score.sol\":456:469  createTeacher */\n      tag_10\n        /* \"w2-2/Score.sol\":456:471  createTeacher() */\n      jump\t// in\n    tag_14:\n        /* \"w2-2/Score.sol\":445:471  teacher == createTeacher() */\n      0xffffffffffffffffffffffffffffffffffffffff\n      and\n        /* \"w2-2/Score.sol\":445:452  teacher */\n      dup2\n        /* \"w2-2/Score.sol\":445:471  teacher == createTeacher() */\n      0xffffffffffffffffffffffffffffffffffffffff\n      and\n      eq\n        /* \"w2-2/Score.sol\":437:502  require(teacher == createTeacher(), \"only teacher can set score\") */\n      tag_15\n      jumpi\n      mload(0x40)\n      0x08c379a000000000000000000000000000000000000000000000000000000000\n      dup2\n      mstore\n      0x04\n      add\n      tag_16\n      swap1\n      tag_17\n      jump\t// in\n    tag_16:\n      mload(0x40)\n      dup1\n      swap2\n      sub\n      swap1\n      revert\n    tag_15:\n        /* \"w2-2/Score.sol\":293:296  100 */\n      0x64\n        /* \"w2-2/Score.sol\":284:289  score */\n      dup3\n        /* \"w2-2/Score.sol\":284:296  score <= 100 */\n      gt\n      iszero\n        /* \"w2-2/Score.sol\":276:325  require(score <= 100, \"score must less than 100\") */\n      tag_19\n      jumpi\n      mload(0x40)\n      0x08c379a000000000000000000000000000000000000000000000000000000000\n      dup2\n      mstore\n      0x04\n      add\n      tag_20\n      swap1\n      tag_21\n      jump\t// in\n    tag_20:\n      mload(0x40)\n      dup1\n      swap2\n      sub\n      swap1\n      revert\n    tag_19:\n        /* \"w2-2/Score.sol\":344:354  msg.sender */\n      caller\n        /* \"w2-2/Score.sol\":335:341  sender */\n      0x01\n      0x00\n        /* \"w2-2/Score.sol\":335:354  sender = msg.sender */\n      0x0100\n      exp\n      dup2\n      sload\n      dup2\n      0xffffffffffffffffffffffffffffffffffffffff\n      mul\n      not\n      and\n      swap1\n      dup4\n      0xffffffffffffffffffffffffffffffffffffffff\n      and\n      mul\n      or\n      swap1\n      sstore\n      pop\n        /* \"w2-2/Score.sol\":373:378  score */\n      dup2\n        /* \"w2-2/Score.sol\":364:370  _score */\n      0x00\n        /* \"w2-2/Score.sol\":364:378  _score = score */\n      dup2\n      swap1\n      sstore\n      pop\n        /* \"w2-2/Score.sol\":203:385  function setScore(uint256 score) external isTeacher(msg.sender){... */\n      pop\n      pop\n      jump\t// out\n        /* \"w2-2/Score.sol\":580:958  function createTeacher() public view returns (address) {... */\n    tag_10:\n        /* \"w2-2/Score.sol\":626:633  address */\n      0x00\n        /* \"w2-2/Score.sol\":645:657  bytes32 salt */\n      dup1\n        /* \"w2-2/Score.sol\":687:697  msg.sender */\n      caller\n        /* \"w2-2/Score.sol\":670:698  abi.encodePacked(msg.sender) */\n      add(0x20, mload(0x40))\n      tag_23\n      swap2\n      swap1\n      tag_24\n      jump\t// in\n    tag_23:\n      mload(0x40)\n      0x20\n      dup2\n      dup4\n      sub\n      sub\n      dup2\n      mstore\n      swap1\n      0x40\n      mstore\n        /* \"w2-2/Score.sol\":660:699  keccak256(abi.encodePacked(msg.sender)) */\n      dup1\n      mload\n      swap1\n      0x20\n      add\n      keccak256\n        /* \"w2-2/Score.sol\":645:699  bytes32 salt = keccak256(abi.encodePacked(msg.sender)) */\n      swap1\n      pop\n        /* \"w2-2/Score.sol\":801:811  msg.sender */\n      caller\n        /* \"w2-2/Score.sol\":825:829  salt */\n      dup2\n        /* \"w2-2/Score.sol\":887:913  type(Teacher).creationCode */\n      mload(0x40)\n      dup1\n      0x20\n      add\n      tag_25\n      swap1\n      tag_26\n      jump\t// in\n    tag_25:\n      0x20\n      dup3\n      add\n      dup2\n      sub\n      dup3\n      mstore\n      not(0x1f)\n      0x1f\n      dup3\n      add\n      and\n      0x40\n      mstore\n      pop\n        /* \"w2-2/Score.sol\":853:927  abi.encodePacked(... */\n      add(0x20, mload(0x40))\n      tag_27\n      swap2\n      swap1\n      tag_28\n      jump\t// in\n    tag_27:\n      mload(0x40)\n      0x20\n      dup2\n      dup4\n      sub\n      sub\n      dup2\n      mstore\n      swap1\n      0x40\n      mstore\n        /* \"w2-2/Score.sol\":843:928  keccak256(abi.encodePacked(... */\n      dup1\n      mload\n      swap1\n      0x20\n      add\n      keccak256\n        /* \"w2-2/Score.sol\":750:938  abi.encodePacked(... */\n      add(0x20, mload(0x40))\n      tag_29\n      swap4\n      swap3\n      swap2\n      swap1\n      tag_30\n      jump\t// in\n    tag_29:\n      mload(0x40)\n      0x20\n      dup2\n      dup4\n      sub\n      sub\n      dup2\n      mstore\n      swap1\n      0x40\n      mstore\n        /* \"w2-2/Score.sol\":740:939  keccak256(abi.encodePacked(... */\n      dup1\n      mload\n      swap1\n      0x20\n      add\n      keccak256\n        /* \"w2-2/Score.sol\":732:940  uint256(keccak256(abi.encodePacked(... */\n      0x00\n      shr\n        /* \"w2-2/Score.sol\":709:942  return address(uint160(uint256(keccak256(abi.encodePacked(... */\n      swap2\n      pop\n      pop\n        /* \"w2-2/Score.sol\":580:958  function createTeacher() public view returns (address) {... */\n      swap1\n      jump\t// out\n    tag_26:\n      dataSize(sub_0)\n      dup1\n      dataOffset(sub_0)\n      dup4\n      codecopy\n      add\n      swap1\n      jump\t// out\n        /* \"#utility.yul\":88:205   */\n    tag_32:\n        /* \"#utility.yul\":197:198   */\n      0x00\n        /* \"#utility.yul\":194:195   */\n      dup1\n        /* \"#utility.yul\":187:199   */\n      revert\n        /* \"#utility.yul\":334:411   */\n    tag_34:\n        /* \"#utility.yul\":371:378   */\n      0x00\n        /* \"#utility.yul\":400:405   */\n      dup2\n        /* \"#utility.yul\":389:405   */\n      swap1\n      pop\n        /* \"#utility.yul\":334:411   */\n      swap2\n      swap1\n      pop\n      jump\t// out\n        /* \"#utility.yul\":417:539   */\n    tag_35:\n        /* \"#utility.yul\":490:514   */\n      tag_65\n        /* \"#utility.yul\":508:513   */\n      dup2\n        /* \"#utility.yul\":490:514   */\n      tag_34\n      jump\t// in\n    tag_65:\n        /* \"#utility.yul\":483:488   */\n      dup2\n        /* \"#utility.yul\":480:515   */\n      eq\n        /* \"#utility.yul\":470:533   */\n      tag_66\n      jumpi\n        /* \"#utility.yul\":529:530   */\n      0x00\n        /* \"#utility.yul\":526:527   */\n      dup1\n        /* \"#utility.yul\":519:531   */\n      revert\n        /* \"#utility.yul\":470:533   */\n    tag_66:\n        /* \"#utility.yul\":417:539   */\n      pop\n      jump\t// out\n        /* \"#utility.yul\":545:684   */\n    tag_36:\n        /* \"#utility.yul\":591:596   */\n      0x00\n        /* \"#utility.yul\":629:635   */\n      dup2\n        /* \"#utility.yul\":616:636   */\n      calldataload\n        /* \"#utility.yul\":607:636   */\n      swap1\n      pop\n        /* \"#utility.yul\":645:678   */\n      tag_68\n        /* \"#utility.yul\":672:677   */\n      dup2\n        /* \"#utility.yul\":645:678   */\n      tag_35\n      jump\t// in\n    tag_68:\n        /* \"#utility.yul\":545:684   */\n      swap3\n      swap2\n      pop\n      pop\n      jump\t// out\n        /* \"#utility.yul\":690:1019   */\n    tag_7:\n        /* \"#utility.yul\":749:755   */\n      0x00\n        /* \"#utility.yul\":798:800   */\n      0x20\n        /* \"#utility.yul\":786:795   */\n      dup3\n        /* \"#utility.yul\":777:784   */\n      dup5\n        /* \"#utility.yul\":773:796   */\n      sub\n        /* \"#utility.yul\":769:801   */\n      slt\n        /* \"#utility.yul\":766:885   */\n      iszero\n      tag_70\n      jumpi\n        /* \"#utility.yul\":804:883   */\n      tag_71\n      tag_32\n      jump\t// in\n    tag_71:\n        /* \"#utility.yul\":766:885   */\n    tag_70:\n        /* \"#utility.yul\":924:925   */\n      0x00\n        /* \"#utility.yul\":949:1002   */\n      tag_72\n        /* \"#utility.yul\":994:1001   */\n      dup5\n        /* \"#utility.yul\":985:991   */\n      dup3\n        /* \"#utility.yul\":974:983   */\n      dup6\n        /* \"#utility.yul\":970:992   */\n      add\n        /* \"#utility.yul\":949:1002   */\n      tag_36\n      jump\t// in\n    tag_72:\n        /* \"#utility.yul\":939:1002   */\n      swap2\n      pop\n        /* \"#utility.yul\":895:1012   */\n      pop\n        /* \"#utility.yul\":690:1019   */\n      swap3\n      swap2\n      pop\n      pop\n      jump\t// out\n        /* \"#utility.yul\":1025:1151   */\n    tag_37:\n        /* \"#utility.yul\":1062:1069   */\n      0x00\n        /* \"#utility.yul\":1102:1144   */\n      0xffffffffffffffffffffffffffffffffffffffff\n        /* \"#utility.yul\":1095:1100   */\n      dup3\n        /* \"#utility.yul\":1091:1145   */\n      and\n        /* \"#utility.yul\":1080:1145   */\n      swap1\n      pop\n        /* \"#utility.yul\":1025:1151   */\n      swap2\n      swap1\n      pop\n      jump\t// out\n        /* \"#utility.yul\":1157:1253   */\n    tag_38:\n        /* \"#utility.yul\":1194:1201   */\n      0x00\n        /* \"#utility.yul\":1223:1247   */\n      tag_75\n        /* \"#utility.yul\":1241:1246   */\n      dup3\n        /* \"#utility.yul\":1223:1247   */\n      tag_37\n      jump\t// in\n    tag_75:\n        /* \"#utility.yul\":1212:1247   */\n      swap1\n      pop\n        /* \"#utility.yul\":1157:1253   */\n      swap2\n      swap1\n      pop\n      jump\t// out\n        /* \"#utility.yul\":1259:1377   */\n    tag_39:\n        /* \"#utility.yul\":1346:1370   */\n      tag_77\n        /* \"#utility.yul\":1364:1369   */\n      dup2\n        /* \"#utility.yul\":1346:1370   */\n      tag_38\n      jump\t// in\n    tag_77:\n        /* \"#utility.yul\":1341:1344   */\n      dup3\n        /* \"#utility.yul\":1334:1371   */\n      mstore\n        /* \"#utility.yul\":1259:1377   */\n      pop\n      pop\n      jump\t// out\n        /* \"#utility.yul\":1383:1605   */\n    tag_12:\n        /* \"#utility.yul\":1476:1480   */\n      0x00\n        /* \"#utility.yul\":1514:1516   */\n      0x20\n        /* \"#utility.yul\":1503:1512   */\n      dup3\n        /* \"#utility.yul\":1499:1517   */\n      add\n        /* \"#utility.yul\":1491:1517   */\n      swap1\n      pop\n        /* \"#utility.yul\":1527:1598   */\n      tag_79\n        /* \"#utility.yul\":1595:1596   */\n      0x00\n        /* \"#utility.yul\":1584:1593   */\n      dup4\n        /* \"#utility.yul\":1580:1597   */\n      add\n        /* \"#utility.yul\":1571:1577   */\n      dup5\n        /* \"#utility.yul\":1527:1598   */\n      tag_39\n      jump\t// in\n    tag_79:\n        /* \"#utility.yul\":1383:1605   */\n      swap3\n      swap2\n      pop\n      pop\n      jump\t// out\n        /* \"#utility.yul\":1611:1780   */\n    tag_40:\n        /* \"#utility.yul\":1695:1706   */\n      0x00\n        /* \"#utility.yul\":1729:1735   */\n      dup3\n        /* \"#utility.yul\":1724:1727   */\n      dup3\n        /* \"#utility.yul\":1717:1736   */\n      mstore\n        /* \"#utility.yul\":1769:1773   */\n      0x20\n        /* \"#utility.yul\":1764:1767   */\n      dup3\n        /* \"#utility.yul\":1760:1774   */\n      add\n        /* \"#utility.yul\":1745:1774   */\n      swap1\n      pop\n        /* \"#utility.yul\":1611:1780   */\n      swap3\n      swap2\n      pop\n      pop\n      jump\t// out\n        /* \"#utility.yul\":1786:1962   */\n    tag_41:\n        /* \"#utility.yul\":1926:1954   */\n      0x6f6e6c7920746561636865722063616e207365742073636f7265000000000000\n        /* \"#utility.yul\":1922:1923   */\n      0x00\n        /* \"#utility.yul\":1914:1920   */\n      dup3\n        /* \"#utility.yul\":1910:1924   */\n      add\n        /* \"#utility.yul\":1903:1955   */\n      mstore\n        /* \"#utility.yul\":1786:1962   */\n      pop\n      jump\t// out\n        /* \"#utility.yul\":1968:2334   */\n    tag_42:\n        /* \"#utility.yul\":2110:2113   */\n      0x00\n        /* \"#utility.yul\":2131:2198   */\n      tag_83\n        /* \"#utility.yul\":2195:2197   */\n      0x1a\n        /* \"#utility.yul\":2190:2193   */\n      dup4\n        /* \"#utility.yul\":2131:2198   */\n      tag_40\n      jump\t// in\n    tag_83:\n        /* \"#utility.yul\":2124:2198   */\n      swap2\n      pop\n        /* \"#utility.yul\":2207:2300   */\n      tag_84\n        /* \"#utility.yul\":2296:2299   */\n      dup3\n        /* \"#utility.yul\":2207:2300   */\n      tag_41\n      jump\t// in\n    tag_84:\n        /* \"#utility.yul\":2325:2327   */\n      0x20\n        /* \"#utility.yul\":2320:2323   */\n      dup3\n        /* \"#utility.yul\":2316:2328   */\n      add\n        /* \"#utility.yul\":2309:2328   */\n      swap1\n      pop\n        /* \"#utility.yul\":1968:2334   */\n      swap2\n      swap1\n      pop\n      jump\t// out\n        /* \"#utility.yul\":2340:2759   */\n    tag_17:\n        /* \"#utility.yul\":2506:2510   */\n      0x00\n        /* \"#utility.yul\":2544:2546   */\n      0x20\n        /* \"#utility.yul\":2533:2542   */\n      dup3\n        /* \"#utility.yul\":2529:2547   */\n      add\n        /* \"#utility.yul\":2521:2547   */\n      swap1\n      pop\n        /* \"#utility.yul\":2593:2602   */\n      dup2\n        /* \"#utility.yul\":2587:2591   */\n      dup2\n        /* \"#utility.yul\":2583:2603   */\n      sub\n        /* \"#utility.yul\":2579:2580   */\n      0x00\n        /* \"#utility.yul\":2568:2577   */\n      dup4\n        /* \"#utility.yul\":2564:2581   */\n      add\n        /* \"#utility.yul\":2557:2604   */\n      mstore\n        /* \"#utility.yul\":2621:2752   */\n      tag_86\n        /* \"#utility.yul\":2747:2751   */\n      dup2\n        /* \"#utility.yul\":2621:2752   */\n      tag_42\n      jump\t// in\n    tag_86:\n        /* \"#utility.yul\":2613:2752   */\n      swap1\n      pop\n        /* \"#utility.yul\":2340:2759   */\n      swap2\n      swap1\n      pop\n      jump\t// out\n        /* \"#utility.yul\":2765:2939   */\n    tag_43:\n        /* \"#utility.yul\":2905:2931   */\n      0x73636f7265206d757374206c657373207468616e203130300000000000000000\n        /* \"#utility.yul\":2901:2902   */\n      0x00\n        /* \"#utility.yul\":2893:2899   */\n      dup3\n        /* \"#utility.yul\":2889:2903   */\n      add\n        /* \"#utility.yul\":2882:2932   */\n      mstore\n        /* \"#utility.yul\":2765:2939   */\n      pop\n      jump\t// out\n        /* \"#utility.yul\":2945:3311   */\n    tag_44:\n        /* \"#utility.yul\":3087:3090   */\n      0x00\n        /* \"#utility.yul\":3108:3175   */\n      tag_89\n        /* \"#utility.yul\":3172:3174   */\n      0x18\n        /* \"#utility.yul\":3167:3170   */\n      dup4\n        /* \"#utility.yul\":3108:3175   */\n      tag_40\n      jump\t// in\n    tag_89:\n        /* \"#utility.yul\":3101:3175   */\n      swap2\n      pop\n        /* \"#utility.yul\":3184:3277   */\n      tag_90\n        /* \"#utility.yul\":3273:3276   */\n      dup3\n        /* \"#utility.yul\":3184:3277   */\n      tag_43\n      jump\t// in\n    tag_90:\n        /* \"#utility.yul\":3302:3304   */\n      0x20\n        /* \"#utility.yul\":3297:3300   */\n      dup3\n        /* \"#utility.yul\":3293:3305   */\n      add\n        /* \"#utility.yul\":3286:3305   */\n      swap1\n      pop\n        /* \"#utility.yul\":2945:3311   */\n      swap2\n      swap1\n      pop\n      jump\t// out\n        /* \"#utility.yul\":3317:3736   */\n    tag_21:\n        /* \"#utility.yul\":3483:3487   */\n      0x00\n        /* \"#utility.yul\":3521:3523   */\n      0x20\n        /* \"#utility.yul\":3510:3519   */\n      dup3\n        /* \"#utility.yul\":3506:3524   */\n      add\n        /* \"#utility.yul\":3498:3524   */\n      swap1\n      pop\n        /* \"#utility.yul\":3570:3579   */\n      dup2\n        /* \"#utility.yul\":3564:3568   */\n      dup2\n        /* \"#utility.yul\":3560:3580   */\n      sub\n        /* \"#utility.yul\":3556:3557   */\n      0x00\n        /* \"#utility.yul\":3545:3554   */\n      dup4\n        /* \"#utility.yul\":3541:3558   */\n      add\n        /* \"#utility.yul\":3534:3581   */\n      mstore\n        /* \"#utility.yul\":3598:3729   */\n      tag_92\n        /* \"#utility.yul\":3724:3728   */\n      dup2\n        /* \"#utility.yul\":3598:3729   */\n      tag_44\n      jump\t// in\n    tag_92:\n        /* \"#utility.yul\":3590:3729   */\n      swap1\n      pop\n        /* \"#utility.yul\":3317:3736   */\n      swap2\n      swap1\n      pop\n      jump\t// out\n        /* \"#utility.yul\":3742:3836   */\n    tag_45:\n        /* \"#utility.yul\":3775:3783   */\n      0x00\n        /* \"#utility.yul\":3823:3828   */\n      dup2\n        /* \"#utility.yul\":3819:3821   */\n      0x60\n        /* \"#utility.yul\":3815:3829   */\n      shl\n        /* \"#utility.yul\":3794:3829   */\n      swap1\n      pop\n        /* \"#utility.yul\":3742:3836   */\n      swap2\n      swap1\n      pop\n      jump\t// out\n        /* \"#utility.yul\":3842:3936   */\n    tag_46:\n        /* \"#utility.yul\":3881:3888   */\n      0x00\n        /* \"#utility.yul\":3910:3930   */\n      tag_95\n        /* \"#utility.yul\":3924:3929   */\n      dup3\n        /* \"#utility.yul\":3910:3930   */\n      tag_45\n      jump\t// in\n    tag_95:\n        /* \"#utility.yul\":3899:3930   */\n      swap1\n      pop\n        /* \"#utility.yul\":3842:3936   */\n      swap2\n      swap1\n      pop\n      jump\t// out\n        /* \"#utility.yul\":3942:4042   */\n    tag_47:\n        /* \"#utility.yul\":3981:3988   */\n      0x00\n        /* \"#utility.yul\":4010:4036   */\n      tag_97\n        /* \"#utility.yul\":4030:4035   */\n      dup3\n        /* \"#utility.yul\":4010:4036   */\n      tag_46\n      jump\t// in\n    tag_97:\n        /* \"#utility.yul\":3999:4036   */\n      swap1\n      pop\n        /* \"#utility.yul\":3942:4042   */\n      swap2\n      swap1\n      pop\n      jump\t// out\n        /* \"#utility.yul\":4048:4205   */\n    tag_48:\n        /* \"#utility.yul\":4153:4198   */\n      tag_99\n        /* \"#utility.yul\":4173:4197   */\n      tag_100\n        /* \"#utility.yul\":4191:4196   */\n      dup3\n        /* \"#utility.yul\":4173:4197   */\n      tag_38\n      jump\t// in\n    tag_100:\n        /* \"#utility.yul\":4153:4198   */\n      tag_47\n      jump\t// in\n    tag_99:\n        /* \"#utility.yul\":4148:4151   */\n      dup3\n        /* \"#utility.yul\":4141:4199   */\n      mstore\n        /* \"#utility.yul\":4048:4205   */\n      pop\n      pop\n      jump\t// out\n        /* \"#utility.yul\":4211:4467   */\n    tag_24:\n        /* \"#utility.yul\":4323:4326   */\n      0x00\n        /* \"#utility.yul\":4338:4413   */\n      tag_102\n        /* \"#utility.yul\":4409:4412   */\n      dup3\n        /* \"#utility.yul\":4400:4406   */\n      dup5\n        /* \"#utility.yul\":4338:4413   */\n      tag_48\n      jump\t// in\n    tag_102:\n        /* \"#utility.yul\":4438:4440   */\n      0x14\n        /* \"#utility.yul\":4433:4436   */\n      dup3\n        /* \"#utility.yul\":4429:4441   */\n      add\n        /* \"#utility.yul\":4422:4441   */\n      swap2\n      pop\n        /* \"#utility.yul\":4458:4461   */\n      dup2\n        /* \"#utility.yul\":4451:4461   */\n      swap1\n      pop\n        /* \"#utility.yul\":4211:4467   */\n      swap3\n      swap2\n      pop\n      pop\n      jump\t// out\n        /* \"#utility.yul\":4473:4571   */\n    tag_49:\n        /* \"#utility.yul\":4524:4530   */\n      0x00\n        /* \"#utility.yul\":4558:4563   */\n      dup2\n        /* \"#utility.yul\":4552:4564   */\n      mload\n        /* \"#utility.yul\":4542:4564   */\n      swap1\n      pop\n        /* \"#utility.yul\":4473:4571   */\n      swap2\n      swap1\n      pop\n      jump\t// out\n        /* \"#utility.yul\":4577:4724   */\n    tag_50:\n        /* \"#utility.yul\":4678:4689   */\n      0x00\n        /* \"#utility.yul\":4715:4718   */\n      dup2\n        /* \"#utility.yul\":4700:4718   */\n      swap1\n      pop\n        /* \"#utility.yul\":4577:4724   */\n      swap3\n      swap2\n      pop\n      pop\n      jump\t// out\n        /* \"#utility.yul\":4730:5037   */\n    tag_51:\n        /* \"#utility.yul\":4798:4799   */\n      0x00\n        /* \"#utility.yul\":4808:4921   */\n    tag_106:\n        /* \"#utility.yul\":4822:4828   */\n      dup4\n        /* \"#utility.yul\":4819:4820   */\n      dup2\n        /* \"#utility.yul\":4816:4829   */\n      lt\n        /* \"#utility.yul\":4808:4921   */\n      iszero\n      tag_108\n      jumpi\n        /* \"#utility.yul\":4907:4908   */\n      dup1\n        /* \"#utility.yul\":4902:4905   */\n      dup3\n        /* \"#utility.yul\":4898:4909   */\n      add\n        /* \"#utility.yul\":4892:4910   */\n      mload\n        /* \"#utility.yul\":4888:4889   */\n      dup2\n        /* \"#utility.yul\":4883:4886   */\n      dup5\n        /* \"#utility.yul\":4879:4890   */\n      add\n        /* \"#utility.yul\":4872:4911   */\n      mstore\n        /* \"#utility.yul\":4844:4846   */\n      0x20\n        /* \"#utility.yul\":4841:4842   */\n      dup2\n        /* \"#utility.yul\":4837:4847   */\n      add\n        /* \"#utility.yul\":4832:4847   */\n      swap1\n      pop\n        /* \"#utility.yul\":4808:4921   */\n      jump(tag_106)\n    tag_108:\n        /* \"#utility.yul\":4939:4945   */\n      dup4\n        /* \"#utility.yul\":4936:4937   */\n      dup2\n        /* \"#utility.yul\":4933:4946   */\n      gt\n        /* \"#utility.yul\":4930:5031   */\n      iszero\n      tag_109\n      jumpi\n        /* \"#utility.yul\":5019:5020   */\n      0x00\n        /* \"#utility.yul\":5010:5016   */\n      dup5\n        /* \"#utility.yul\":5005:5008   */\n      dup5\n        /* \"#utility.yul\":5001:5017   */\n      add\n        /* \"#utility.yul\":4994:5021   */\n      mstore\n        /* \"#utility.yul\":4930:5031   */\n    tag_109:\n        /* \"#utility.yul\":4779:5037   */\n      pop\n        /* \"#utility.yul\":4730:5037   */\n      pop\n      pop\n      pop\n      jump\t// out\n        /* \"#utility.yul\":5043:5416   */\n    tag_52:\n        /* \"#utility.yul\":5147:5150   */\n      0x00\n        /* \"#utility.yul\":5175:5213   */\n      tag_111\n        /* \"#utility.yul\":5207:5212   */\n      dup3\n        /* \"#utility.yul\":5175:5213   */\n      tag_49\n      jump\t// in\n    tag_111:\n        /* \"#utility.yul\":5229:5317   */\n      tag_112\n        /* \"#utility.yul\":5310:5316   */\n      dup2\n        /* \"#utility.yul\":5305:5308   */\n      dup6\n        /* \"#utility.yul\":5229:5317   */\n      tag_50\n      jump\t// in\n    tag_112:\n        /* \"#utility.yul\":5222:5317   */\n      swap4\n      pop\n        /* \"#utility.yul\":5326:5378   */\n      tag_113\n        /* \"#utility.yul\":5371:5377   */\n      dup2\n        /* \"#utility.yul\":5366:5369   */\n      dup6\n        /* \"#utility.yul\":5359:5363   */\n      0x20\n        /* \"#utility.yul\":5352:5357   */\n      dup7\n        /* \"#utility.yul\":5348:5364   */\n      add\n        /* \"#utility.yul\":5326:5378   */\n      tag_51\n      jump\t// in\n    tag_113:\n        /* \"#utility.yul\":5403:5409   */\n      dup1\n        /* \"#utility.yul\":5398:5401   */\n      dup5\n        /* \"#utility.yul\":5394:5410   */\n      add\n        /* \"#utility.yul\":5387:5410   */\n      swap2\n      pop\n        /* \"#utility.yul\":5151:5416   */\n      pop\n        /* \"#utility.yul\":5043:5416   */\n      swap3\n      swap2\n      pop\n      pop\n      jump\t// out\n        /* \"#utility.yul\":5422:5693   */\n    tag_28:\n        /* \"#utility.yul\":5552:5555   */\n      0x00\n        /* \"#utility.yul\":5574:5667   */\n      tag_115\n        /* \"#utility.yul\":5663:5666   */\n      dup3\n        /* \"#utility.yul\":5654:5660   */\n      dup5\n        /* \"#utility.yul\":5574:5667   */\n      tag_52\n      jump\t// in\n    tag_115:\n        /* \"#utility.yul\":5567:5667   */\n      swap2\n      pop\n        /* \"#utility.yul\":5684:5687   */\n      dup2\n        /* \"#utility.yul\":5677:5687   */\n      swap1\n      pop\n        /* \"#utility.yul\":5422:5693   */\n      swap3\n      swap2\n      pop\n      pop\n      jump\t// out\n        /* \"#utility.yul\":5699:5847   */\n    tag_53:\n        /* \"#utility.yul\":5801:5812   */\n      0x00\n        /* \"#utility.yul\":5838:5841   */\n      dup2\n        /* \"#utility.yul\":5823:5841   */\n      swap1\n      pop\n        /* \"#utility.yul\":5699:5847   */\n      swap3\n      swap2\n      pop\n      pop\n      jump\t// out\n        /* \"#utility.yul\":5853:6067   */\n    tag_54:\n        /* \"#utility.yul\":5993:6059   */\n      0xff00000000000000000000000000000000000000000000000000000000000000\n        /* \"#utility.yul\":5989:5990   */\n      0x00\n        /* \"#utility.yul\":5981:5987   */\n      dup3\n        /* \"#utility.yul\":5977:5991   */\n      add\n        /* \"#utility.yul\":5970:6060   */\n      mstore\n        /* \"#utility.yul\":5853:6067   */\n      pop\n      jump\t// out\n        /* \"#utility.yul\":6073:6473   */\n    tag_55:\n        /* \"#utility.yul\":6233:6236   */\n      0x00\n        /* \"#utility.yul\":6254:6338   */\n      tag_119\n        /* \"#utility.yul\":6336:6337   */\n      0x01\n        /* \"#utility.yul\":6331:6334   */\n      dup4\n        /* \"#utility.yul\":6254:6338   */\n      tag_53\n      jump\t// in\n    tag_119:\n        /* \"#utility.yul\":6247:6338   */\n      swap2\n      pop\n        /* \"#utility.yul\":6347:6440   */\n      tag_120\n        /* \"#utility.yul\":6436:6439   */\n      dup3\n        /* \"#utility.yul\":6347:6440   */\n      tag_54\n      jump\t// in\n    tag_120:\n        /* \"#utility.yul\":6465:6466   */\n      0x01\n        /* \"#utility.yul\":6460:6463   */\n      dup3\n        /* \"#utility.yul\":6456:6467   */\n      add\n        /* \"#utility.yul\":6449:6467   */\n      swap1\n      pop\n        /* \"#utility.yul\":6073:6473   */\n      swap2\n      swap1\n      pop\n      jump\t// out\n        /* \"#utility.yul\":6479:6556   */\n    tag_56:\n        /* \"#utility.yul\":6516:6523   */\n      0x00\n        /* \"#utility.yul\":6545:6550   */\n      dup2\n        /* \"#utility.yul\":6534:6550   */\n      swap1\n      pop\n        /* \"#utility.yul\":6479:6556   */\n      swap2\n      swap1\n      pop\n      jump\t// out\n        /* \"#utility.yul\":6562:6641   */\n    tag_57:\n        /* \"#utility.yul\":6601:6608   */\n      0x00\n        /* \"#utility.yul\":6630:6635   */\n      dup2\n        /* \"#utility.yul\":6619:6635   */\n      swap1\n      pop\n        /* \"#utility.yul\":6562:6641   */\n      swap2\n      swap1\n      pop\n      jump\t// out\n        /* \"#utility.yul\":6647:6804   */\n    tag_58:\n        /* \"#utility.yul\":6752:6797   */\n      tag_124\n        /* \"#utility.yul\":6772:6796   */\n      tag_125\n        /* \"#utility.yul\":6790:6795   */\n      dup3\n        /* \"#utility.yul\":6772:6796   */\n      tag_56\n      jump\t// in\n    tag_125:\n        /* \"#utility.yul\":6752:6797   */\n      tag_57\n      jump\t// in\n    tag_124:\n        /* \"#utility.yul\":6747:6750   */\n      dup3\n        /* \"#utility.yul\":6740:6798   */\n      mstore\n        /* \"#utility.yul\":6647:6804   */\n      pop\n      pop\n      jump\t// out\n        /* \"#utility.yul\":6810:7614   */\n    tag_30:\n        /* \"#utility.yul\":7079:7082   */\n      0x00\n        /* \"#utility.yul\":7101:7249   */\n      tag_127\n        /* \"#utility.yul\":7245:7248   */\n      dup3\n        /* \"#utility.yul\":7101:7249   */\n      tag_55\n      jump\t// in\n    tag_127:\n        /* \"#utility.yul\":7094:7249   */\n      swap2\n      pop\n        /* \"#utility.yul\":7259:7334   */\n      tag_128\n        /* \"#utility.yul\":7330:7333   */\n      dup3\n        /* \"#utility.yul\":7321:7327   */\n      dup7\n        /* \"#utility.yul\":7259:7334   */\n      tag_48\n      jump\t// in\n    tag_128:\n        /* \"#utility.yul\":7359:7361   */\n      0x14\n        /* \"#utility.yul\":7354:7357   */\n      dup3\n        /* \"#utility.yul\":7350:7362   */\n      add\n        /* \"#utility.yul\":7343:7362   */\n      swap2\n      pop\n        /* \"#utility.yul\":7372:7447   */\n      tag_129\n        /* \"#utility.yul\":7443:7446   */\n      dup3\n        /* \"#utility.yul\":7434:7440   */\n      dup6\n        /* \"#utility.yul\":7372:7447   */\n      tag_58\n      jump\t// in\n    tag_129:\n        /* \"#utility.yul\":7472:7474   */\n      0x20\n        /* \"#utility.yul\":7467:7470   */\n      dup3\n        /* \"#utility.yul\":7463:7475   */\n      add\n        /* \"#utility.yul\":7456:7475   */\n      swap2\n      pop\n        /* \"#utility.yul\":7485:7560   */\n      tag_130\n        /* \"#utility.yul\":7556:7559   */\n      dup3\n        /* \"#utility.yul\":7547:7553   */\n      dup5\n        /* \"#utility.yul\":7485:7560   */\n      tag_58\n      jump\t// in\n    tag_130:\n        /* \"#utility.yul\":7585:7587   */\n      0x20\n        /* \"#utility.yul\":7580:7583   */\n      dup3\n        /* \"#utility.yul\":7576:7588   */\n      add\n        /* \"#utility.yul\":7569:7588   */\n      swap2\n      pop\n        /* \"#utility.yul\":7605:7608   */\n      dup2\n        /* \"#utility.yul\":7598:7608   */\n      swap1\n      pop\n        /* \"#utility.yul\":6810:7614   */\n      swap5\n      swap4\n      pop\n      pop\n      pop\n      pop\n      jump\t// out\n    stop\n\n    sub_0: assembly {\n            /* \"w2-2/Teacher.sol\":87:255  contract Teacher {... */\n          mstore(0x40, 0x80)\n          callvalue\n          dup1\n          iszero\n          tag_1\n          jumpi\n          0x00\n          dup1\n          revert\n        tag_1:\n          pop\n          dataSize(sub_0)\n          dup1\n          dataOffset(sub_0)\n          0x00\n          codecopy\n          0x00\n          return\n        stop\n\n        sub_0: assembly {\n                /* \"w2-2/Teacher.sol\":87:255  contract Teacher {... */\n              mstore(0x40, 0x80)\n              callvalue\n              dup1\n              iszero\n              tag_1\n              jumpi\n              0x00\n              dup1\n              revert\n            tag_1:\n              pop\n              jumpi(tag_2, lt(calldatasize, 0x04))\n              shr(0xe0, calldataload(0x00))\n              dup1\n              0x5487d54f\n              eq\n              tag_3\n              jumpi\n            tag_2:\n              0x00\n              dup1\n              revert\n                /* \"w2-2/Teacher.sol\":145:252  function setScore(uint256 score, address student) external {... */\n            tag_3:\n              tag_4\n              0x04\n              dup1\n              calldatasize\n              sub\n              dup2\n              add\n              swap1\n              tag_5\n              swap2\n              swap1\n              tag_6\n              jump\t// in\n            tag_5:\n              tag_7\n              jump\t// in\n            tag_4:\n              stop\n            tag_7:\n                /* \"w2-2/Teacher.sol\":221:228  student */\n              dup1\n                /* \"w2-2/Teacher.sol\":214:238  IScore(student).setScore */\n              0xffffffffffffffffffffffffffffffffffffffff\n              and\n              0x422beeba\n                /* \"w2-2/Teacher.sol\":239:244  score */\n              dup4\n                /* \"w2-2/Teacher.sol\":214:245  IScore(student).setScore(score) */\n              mload(0x40)\n              dup3\n              0xffffffff\n              and\n              0xe0\n              shl\n              dup2\n              mstore\n              0x04\n              add\n              tag_9\n              swap2\n              swap1\n              tag_10\n              jump\t// in\n            tag_9:\n              0x00\n              mload(0x40)\n              dup1\n              dup4\n              sub\n              dup2\n              0x00\n              dup8\n              dup1\n              extcodesize\n              iszero\n              dup1\n              iszero\n              tag_11\n              jumpi\n              0x00\n              dup1\n              revert\n            tag_11:\n              pop\n              gas\n              call\n              iszero\n              dup1\n              iszero\n              tag_13\n              jumpi\n              returndatasize\n              0x00\n              dup1\n              returndatacopy\n              revert(0x00, returndatasize)\n            tag_13:\n              pop\n              pop\n              pop\n              pop\n                /* \"w2-2/Teacher.sol\":145:252  function setScore(uint256 score, address student) external {... */\n              pop\n              pop\n              jump\t// out\n                /* \"#utility.yul\":88:205   */\n            tag_15:\n                /* \"#utility.yul\":197:198   */\n              0x00\n                /* \"#utility.yul\":194:195   */\n              dup1\n                /* \"#utility.yul\":187:199   */\n              revert\n                /* \"#utility.yul\":334:411   */\n            tag_17:\n                /* \"#utility.yul\":371:378   */\n              0x00\n                /* \"#utility.yul\":400:405   */\n              dup2\n                /* \"#utility.yul\":389:405   */\n              swap1\n              pop\n                /* \"#utility.yul\":334:411   */\n              swap2\n              swap1\n              pop\n              jump\t// out\n                /* \"#utility.yul\":417:539   */\n            tag_18:\n                /* \"#utility.yul\":490:514   */\n              tag_31\n                /* \"#utility.yul\":508:513   */\n              dup2\n                /* \"#utility.yul\":490:514   */\n              tag_17\n              jump\t// in\n            tag_31:\n                /* \"#utility.yul\":483:488   */\n              dup2\n                /* \"#utility.yul\":480:515   */\n              eq\n                /* \"#utility.yul\":470:533   */\n              tag_32\n              jumpi\n                /* \"#utility.yul\":529:530   */\n              0x00\n                /* \"#utility.yul\":526:527   */\n              dup1\n                /* \"#utility.yul\":519:531   */\n              revert\n                /* \"#utility.yul\":470:533   */\n            tag_32:\n                /* \"#utility.yul\":417:539   */\n              pop\n              jump\t// out\n                /* \"#utility.yul\":545:684   */\n            tag_19:\n                /* \"#utility.yul\":591:596   */\n              0x00\n                /* \"#utility.yul\":629:635   */\n              dup2\n                /* \"#utility.yul\":616:636   */\n              calldataload\n                /* \"#utility.yul\":607:636   */\n              swap1\n              pop\n                /* \"#utility.yul\":645:678   */\n              tag_34\n                /* \"#utility.yul\":672:677   */\n              dup2\n                /* \"#utility.yul\":645:678   */\n              tag_18\n              jump\t// in\n            tag_34:\n                /* \"#utility.yul\":545:684   */\n              swap3\n              swap2\n              pop\n              pop\n              jump\t// out\n                /* \"#utility.yul\":690:816   */\n            tag_20:\n                /* \"#utility.yul\":727:734   */\n              0x00\n                /* \"#utility.yul\":767:809   */\n              0xffffffffffffffffffffffffffffffffffffffff\n                /* \"#utility.yul\":760:765   */\n              dup3\n                /* \"#utility.yul\":756:810   */\n              and\n                /* \"#utility.yul\":745:810   */\n              swap1\n              pop\n                /* \"#utility.yul\":690:816   */\n              swap2\n              swap1\n              pop\n              jump\t// out\n                /* \"#utility.yul\":822:918   */\n            tag_21:\n                /* \"#utility.yul\":859:866   */\n              0x00\n                /* \"#utility.yul\":888:912   */\n              tag_37\n                /* \"#utility.yul\":906:911   */\n              dup3\n                /* \"#utility.yul\":888:912   */\n              tag_20\n              jump\t// in\n            tag_37:\n                /* \"#utility.yul\":877:912   */\n              swap1\n              pop\n                /* \"#utility.yul\":822:918   */\n              swap2\n              swap1\n              pop\n              jump\t// out\n                /* \"#utility.yul\":924:1046   */\n            tag_22:\n                /* \"#utility.yul\":997:1021   */\n              tag_39\n                /* \"#utility.yul\":1015:1020   */\n              dup2\n                /* \"#utility.yul\":997:1021   */\n              tag_21\n              jump\t// in\n            tag_39:\n                /* \"#utility.yul\":990:995   */\n              dup2\n                /* \"#utility.yul\":987:1022   */\n              eq\n                /* \"#utility.yul\":977:1040   */\n              tag_40\n              jumpi\n                /* \"#utility.yul\":1036:1037   */\n              0x00\n                /* \"#utility.yul\":1033:1034   */\n              dup1\n                /* \"#utility.yul\":1026:1038   */\n              revert\n                /* \"#utility.yul\":977:1040   */\n            tag_40:\n                /* \"#utility.yul\":924:1046   */\n              pop\n              jump\t// out\n                /* \"#utility.yul\":1052:1191   */\n            tag_23:\n                /* \"#utility.yul\":1098:1103   */\n              0x00\n                /* \"#utility.yul\":1136:1142   */\n              dup2\n                /* \"#utility.yul\":1123:1143   */\n              calldataload\n                /* \"#utility.yul\":1114:1143   */\n              swap1\n              pop\n                /* \"#utility.yul\":1152:1185   */\n              tag_42\n                /* \"#utility.yul\":1179:1184   */\n              dup2\n                /* \"#utility.yul\":1152:1185   */\n              tag_22\n              jump\t// in\n            tag_42:\n                /* \"#utility.yul\":1052:1191   */\n              swap3\n              swap2\n              pop\n              pop\n              jump\t// out\n                /* \"#utility.yul\":1197:1671   */\n            tag_6:\n                /* \"#utility.yul\":1265:1271   */\n              0x00\n                /* \"#utility.yul\":1273:1279   */\n              dup1\n                /* \"#utility.yul\":1322:1324   */\n              0x40\n                /* \"#utility.yul\":1310:1319   */\n              dup4\n                /* \"#utility.yul\":1301:1308   */\n              dup6\n                /* \"#utility.yul\":1297:1320   */\n              sub\n                /* \"#utility.yul\":1293:1325   */\n              slt\n                /* \"#utility.yul\":1290:1409   */\n              iszero\n              tag_44\n              jumpi\n                /* \"#utility.yul\":1328:1407   */\n              tag_45\n              tag_15\n              jump\t// in\n            tag_45:\n                /* \"#utility.yul\":1290:1409   */\n            tag_44:\n                /* \"#utility.yul\":1448:1449   */\n              0x00\n                /* \"#utility.yul\":1473:1526   */\n              tag_46\n                /* \"#utility.yul\":1518:1525   */\n              dup6\n                /* \"#utility.yul\":1509:1515   */\n              dup3\n                /* \"#utility.yul\":1498:1507   */\n              dup7\n                /* \"#utility.yul\":1494:1516   */\n              add\n                /* \"#utility.yul\":1473:1526   */\n              tag_19\n              jump\t// in\n            tag_46:\n                /* \"#utility.yul\":1463:1526   */\n              swap3\n              pop\n                /* \"#utility.yul\":1419:1536   */\n              pop\n                /* \"#utility.yul\":1575:1577   */\n              0x20\n                /* \"#utility.yul\":1601:1654   */\n              tag_47\n                /* \"#utility.yul\":1646:1653   */\n              dup6\n                /* \"#utility.yul\":1637:1643   */\n              dup3\n                /* \"#utility.yul\":1626:1635   */\n              dup7\n                /* \"#utility.yul\":1622:1644   */\n              add\n                /* \"#utility.yul\":1601:1654   */\n              tag_23\n              jump\t// in\n            tag_47:\n                /* \"#utility.yul\":1591:1654   */\n              swap2\n              pop\n                /* \"#utility.yul\":1546:1664   */\n              pop\n                /* \"#utility.yul\":1197:1671   */\n              swap3\n              pop\n              swap3\n              swap1\n              pop\n              jump\t// out\n                /* \"#utility.yul\":1677:1795   */\n            tag_24:\n                /* \"#utility.yul\":1764:1788   */\n              tag_49\n                /* \"#utility.yul\":1782:1787   */\n              dup2\n                /* \"#utility.yul\":1764:1788   */\n              tag_17\n              jump\t// in\n            tag_49:\n                /* \"#utility.yul\":1759:1762   */\n              dup3\n                /* \"#utility.yul\":1752:1789   */\n              mstore\n                /* \"#utility.yul\":1677:1795   */\n              pop\n              pop\n              jump\t// out\n                /* \"#utility.yul\":1801:2023   */\n            tag_10:\n                /* \"#utility.yul\":1894:1898   */\n              0x00\n                /* \"#utility.yul\":1932:1934   */\n              0x20\n                /* \"#utility.yul\":1921:1930   */\n              dup3\n                /* \"#utility.yul\":1917:1935   */\n              add\n                /* \"#utility.yul\":1909:1935   */\n              swap1\n              pop\n                /* \"#utility.yul\":1945:2016   */\n              tag_51\n                /* \"#utility.yul\":2013:2014   */\n              0x00\n                /* \"#utility.yul\":2002:2011   */\n              dup4\n                /* \"#utility.yul\":1998:2015   */\n              add\n                /* \"#utility.yul\":1989:1995   */\n              dup5\n                /* \"#utility.yul\":1945:2016   */\n              tag_24\n              jump\t// in\n            tag_51:\n                /* \"#utility.yul\":1801:2023   */\n              swap3\n              swap2\n              pop\n              pop\n              jump\t// out\n\n            auxdata: 0xa26469706673582212209fe02799c59491eda2e0e43bf59f72fe6b0b5e3affb14567a4e6c1f81bcd43f564736f6c634300080d0033\n        }\n    }\n\n    auxdata: 0xa2646970667358221220d80be84e05a6dbf3cf36897669b8740a8115bf7e908913c18e811e1b8a6f7ec564736f6c634300080d0033\n}\n",
				"bytecode": {
					"linkReferences": {},
					"object": "608060405234801561001057600080fd5b506107e6806100206000396000f3fe608060405234801561001057600080fd5b50600436106100365760003560e01c8063422beeba1461003b578063a40c3f8c14610057575b600080fd5b6100556004803603810190610050919061026c565b610075565b005b61005f61017b565b60405161006c91906102da565b60405180910390f35b3361007e61017b565b73ffffffffffffffffffffffffffffffffffffffff168173ffffffffffffffffffffffffffffffffffffffff16146100eb576040517f08c379a00000000000000000000000000000000000000000000000000000000081526004016100e290610352565b60405180910390fd5b606482111561012f576040517f08c379a0000000000000000000000000000000000000000000000000000000008152600401610126906103be565b60405180910390fd5b33600160006101000a81548173ffffffffffffffffffffffffffffffffffffffff021916908373ffffffffffffffffffffffffffffffffffffffff160217905550816000819055505050565b6000803360405160200161018f9190610426565b6040516020818303038152906040528051906020012090503381604051806020016101b990610224565b6020820181038252601f19601f820116604052506040516020016101dd91906104bb565b6040516020818303038152906040528051906020012060405160200161020593929190610554565b6040516020818303038152906040528051906020012060001c91505090565b6102148061059d83390190565b600080fd5b6000819050919050565b61024981610236565b811461025457600080fd5b50565b60008135905061026681610240565b92915050565b60006020828403121561028257610281610231565b5b600061029084828501610257565b91505092915050565b600073ffffffffffffffffffffffffffffffffffffffff82169050919050565b60006102c482610299565b9050919050565b6102d4816102b9565b82525050565b60006020820190506102ef60008301846102cb565b92915050565b600082825260208201905092915050565b7f6f6e6c7920746561636865722063616e207365742073636f7265000000000000600082015250565b600061033c601a836102f5565b915061034782610306565b602082019050919050565b6000602082019050818103600083015261036b8161032f565b9050919050565b7f73636f7265206d757374206c657373207468616e203130300000000000000000600082015250565b60006103a86018836102f5565b91506103b382610372565b602082019050919050565b600060208201905081810360008301526103d78161039b565b9050919050565b60008160601b9050919050565b60006103f6826103de565b9050919050565b6000610408826103eb565b9050919050565b61042061041b826102b9565b6103fd565b82525050565b6000610432828461040f565b60148201915081905092915050565b600081519050919050565b600081905092915050565b60005b8381101561047557808201518184015260208101905061045a565b83811115610484576000848401525b50505050565b600061049582610441565b61049f818561044c565b93506104af818560208601610457565b80840191505092915050565b60006104c7828461048a565b915081905092915050565b600081905092915050565b7fff00000000000000000000000000000000000000000000000000000000000000600082015250565b60006105136001836104d2565b915061051e826104dd565b600182019050919050565b6000819050919050565b6000819050919050565b61054e61054982610529565b610533565b82525050565b600061055f82610506565b915061056b828661040f565b60148201915061057b828561053d565b60208201915061058b828461053d565b60208201915081905094935050505056fe608060405234801561001057600080fd5b506101f4806100206000396000f3fe608060405234801561001057600080fd5b506004361061002b5760003560e01c80635487d54f14610030575b600080fd5b61004a60048036038101906100459190610154565b61004c565b005b8073ffffffffffffffffffffffffffffffffffffffff1663422beeba836040518263ffffffff1660e01b815260040161008591906101a3565b600060405180830381600087803b15801561009f57600080fd5b505af11580156100b3573d6000803e3d6000fd5b505050505050565b600080fd5b6000819050919050565b6100d3816100c0565b81146100de57600080fd5b50565b6000813590506100f0816100ca565b92915050565b600073ffffffffffffffffffffffffffffffffffffffff82169050919050565b6000610121826100f6565b9050919050565b61013181610116565b811461013c57600080fd5b50565b60008135905061014e81610128565b92915050565b6000806040838503121561016b5761016a6100bb565b5b6000610179858286016100e1565b925050602061018a8582860161013f565b9150509250929050565b61019d816100c0565b82525050565b60006020820190506101b86000830184610194565b9291505056fea26469706673582212209fe02799c59491eda2e0e43bf59f72fe6b0b5e3affb14567a4e6c1f81bcd43f564736f6c634300080d0033a2646970667358221220d80be84e05a6dbf3cf36897669b8740a8115bf7e908913c18e811e1b8a6f7ec564736f6c634300080d0033",
					"opcodes": "PUSH1 0x80 PUSH1 0x40 MSTORE CALLVALUE DUP1 ISZERO PUSH2 0x10 JUMPI PUSH1 0x0 DUP1 REVERT JUMPDEST POP PUSH2 0x7E6 DUP1 PUSH2 0x20 PUSH1 0x0 CODECOPY PUSH1 0x0 RETURN INVALID PUSH1 0x80 PUSH1 0x40 MSTORE CALLVALUE DUP1 ISZERO PUSH2 0x10 JUMPI PUSH1 0x0 DUP1 REVERT JUMPDEST POP PUSH1 0x4 CALLDATASIZE LT PUSH2 0x36 JUMPI PUSH1 0x0 CALLDATALOAD PUSH1 0xE0 SHR DUP1 PUSH4 0x422BEEBA EQ PUSH2 0x3B JUMPI DUP1 PUSH4 0xA40C3F8C EQ PUSH2 0x57 JUMPI JUMPDEST PUSH1 0x0 DUP1 REVERT JUMPDEST PUSH2 0x55 PUSH1 0x4 DUP1 CALLDATASIZE SUB DUP2 ADD SWAP1 PUSH2 0x50 SWAP2 SWAP1 PUSH2 0x26C JUMP JUMPDEST PUSH2 0x75 JUMP JUMPDEST STOP JUMPDEST PUSH2 0x5F PUSH2 0x17B JUMP JUMPDEST PUSH1 0x40 MLOAD PUSH2 0x6C SWAP2 SWAP1 PUSH2 0x2DA JUMP JUMPDEST PUSH1 0x40 MLOAD DUP1 SWAP2 SUB SWAP1 RETURN JUMPDEST CALLER PUSH2 0x7E PUSH2 0x17B JUMP JUMPDEST PUSH20 0xFFFFFFFFFFFFFFFFFFFFFFFFFFFFFFFFFFFFFFFF AND DUP2 PUSH20 0xFFFFFFFFFFFFFFFFFFFFFFFFFFFFFFFFFFFFFFFF AND EQ PUSH2 0xEB JUMPI PUSH1 0x40 MLOAD PUSH32 0x8C379A000000000000000000000000000000000000000000000000000000000 DUP2 MSTORE PUSH1 0x4 ADD PUSH2 0xE2 SWAP1 PUSH2 0x352 JUMP JUMPDEST PUSH1 0x40 MLOAD DUP1 SWAP2 SUB SWAP1 REVERT JUMPDEST PUSH1 0x64 DUP3 GT ISZERO PUSH2 0x12F JUMPI PUSH1 0x40 MLOAD PUSH32 0x8C379A000000000000000000000000000000000000000000000000000000000 DUP2 MSTORE PUSH1 0x4 ADD PUSH2 0x126 SWAP1 PUSH2 0x3BE JUMP JUMPDEST PUSH1 0x40 MLOAD DUP1 SWAP2 SUB SWAP1 REVERT JUMPDEST CALLER PUSH1 0x1 PUSH1 0x0 PUSH2 0x100 EXP DUP2 SLOAD DUP2 PUSH20 0xFFFFFFFFFFFFFFFFFFFFFFFFFFFFFFFFFFFFFFFF MUL NOT AND SWAP1 DUP4 PUSH20 0xFFFFFFFFFFFFFFFFFFFFFFFFFFFFFFFFFFFFFFFF AND MUL OR SWAP1 SSTORE POP DUP2 PUSH1 0x0 DUP2 SWAP1 SSTORE POP POP POP JUMP JUMPDEST PUSH1 0x0 DUP1 CALLER PUSH1 0x40 MLOAD PUSH1 0x20 ADD PUSH2 0x18F SWAP2 SWAP1 PUSH2 0x426 JUMP JUMPDEST PUSH1 0x40 MLOAD PUSH1 0x20 DUP2 DUP4 SUB SUB DUP2 MSTORE SWAP1 PUSH1 0x40 MSTORE DUP1 MLOAD SWAP1 PUSH1 0x20 ADD KECCAK256 SWAP1 POP CALLER DUP2 PUSH1 0x40 MLOAD DUP1 PUSH1 0x20 ADD PUSH2 0x1B9 SWAP1 PUSH2 0x224 JUMP JUMPDEST PUSH1 0x20 DUP3 ADD DUP2 SUB DUP3 MSTORE PUSH1 0x1F NOT PUSH1 0x1F DUP3 ADD AND PUSH1 0x40 MSTORE POP PUSH1 0x40 MLOAD PUSH1 0x20 ADD PUSH2 0x1DD SWAP2 SWAP1 PUSH2 0x4BB JUMP JUMPDEST PUSH1 0x40 MLOAD PUSH1 0x20 DUP2 DUP4 SUB SUB DUP2 MSTORE SWAP1 PUSH1 0x40 MSTORE DUP1 MLOAD SWAP1 PUSH1 0x20 ADD KECCAK256 PUSH1 0x40 MLOAD PUSH1 0x20 ADD PUSH2 0x205 SWAP4 SWAP3 SWAP2 SWAP1 PUSH2 0x554 JUMP JUMPDEST PUSH1 0x40 MLOAD PUSH1 0x20 DUP2 DUP4 SUB SUB DUP2 MSTORE SWAP1 PUSH1 0x40 MSTORE DUP1 MLOAD SWAP1 PUSH1 0x20 ADD KECCAK256 PUSH1 0x0 SHR SWAP2 POP POP SWAP1 JUMP JUMPDEST PUSH2 0x214 DUP1 PUSH2 0x59D DUP4 CODECOPY ADD SWAP1 JUMP JUMPDEST PUSH1 0x0 DUP1 REVERT JUMPDEST PUSH1 0x0 DUP2 SWAP1 POP SWAP2 SWAP1 POP JUMP JUMPDEST PUSH2 0x249 DUP2 PUSH2 0x236 JUMP JUMPDEST DUP2 EQ PUSH2 0x254 JUMPI PUSH1 0x0 DUP1 REVERT JUMPDEST POP JUMP JUMPDEST PUSH1 0x0 DUP2 CALLDATALOAD SWAP1 POP PUSH2 0x266 DUP2 PUSH2 0x240 JUMP JUMPDEST SWAP3 SWAP2 POP POP JUMP JUMPDEST PUSH1 0x0 PUSH1 0x20 DUP3 DUP5 SUB SLT ISZERO PUSH2 0x282 JUMPI PUSH2 0x281 PUSH2 0x231 JUMP JUMPDEST JUMPDEST PUSH1 0x0 PUSH2 0x290 DUP5 DUP3 DUP6 ADD PUSH2 0x257 JUMP JUMPDEST SWAP2 POP POP SWAP3 SWAP2 POP POP JUMP JUMPDEST PUSH1 0x0 PUSH20 0xFFFFFFFFFFFFFFFFFFFFFFFFFFFFFFFFFFFFFFFF DUP3 AND SWAP1 POP SWAP2 SWAP1 POP JUMP JUMPDEST PUSH1 0x0 PUSH2 0x2C4 DUP3 PUSH2 0x299 JUMP JUMPDEST SWAP1 POP SWAP2 SWAP1 POP JUMP JUMPDEST PUSH2 0x2D4 DUP2 PUSH2 0x2B9 JUMP JUMPDEST DUP3 MSTORE POP POP JUMP JUMPDEST PUSH1 0x0 PUSH1 0x20 DUP3 ADD SWAP1 POP PUSH2 0x2EF PUSH1 0x0 DUP4 ADD DUP5 PUSH2 0x2CB JUMP JUMPDEST SWAP3 SWAP2 POP POP JUMP JUMPDEST PUSH1 0x0 DUP3 DUP3 MSTORE PUSH1 0x20 DUP3 ADD SWAP1 POP SWAP3 SWAP2 POP POP JUMP JUMPDEST PUSH32 0x6F6E6C7920746561636865722063616E207365742073636F7265000000000000 PUSH1 0x0 DUP3 ADD MSTORE POP JUMP JUMPDEST PUSH1 0x0 PUSH2 0x33C PUSH1 0x1A DUP4 PUSH2 0x2F5 JUMP JUMPDEST SWAP2 POP PUSH2 0x347 DUP3 PUSH2 0x306 JUMP JUMPDEST PUSH1 0x20 DUP3 ADD SWAP1 POP SWAP2 SWAP1 POP JUMP JUMPDEST PUSH1 0x0 PUSH1 0x20 DUP3 ADD SWAP1 POP DUP2 DUP2 SUB PUSH1 0x0 DUP4 ADD MSTORE PUSH2 0x36B DUP2 PUSH2 0x32F JUMP JUMPDEST SWAP1 POP SWAP2 SWAP1 POP JUMP JUMPDEST PUSH32 0x73636F7265206D757374206C657373207468616E203130300000000000000000 PUSH1 0x0 DUP3 ADD MSTORE POP JUMP JUMPDEST PUSH1 0x0 PUSH2 0x3A8 PUSH1 0x18 DUP4 PUSH2 0x2F5 JUMP JUMPDEST SWAP2 POP PUSH2 0x3B3 DUP3 PUSH2 0x372 JUMP JUMPDEST PUSH1 0x20 DUP3 ADD SWAP1 POP SWAP2 SWAP1 POP JUMP JUMPDEST PUSH1 0x0 PUSH1 0x20 DUP3 ADD SWAP1 POP DUP2 DUP2 SUB PUSH1 0x0 DUP4 ADD MSTORE PUSH2 0x3D7 DUP2 PUSH2 0x39B JUMP JUMPDEST SWAP1 POP SWAP2 SWAP1 POP JUMP JUMPDEST PUSH1 0x0 DUP2 PUSH1 0x60 SHL SWAP1 POP SWAP2 SWAP1 POP JUMP JUMPDEST PUSH1 0x0 PUSH2 0x3F6 DUP3 PUSH2 0x3DE JUMP JUMPDEST SWAP1 POP SWAP2 SWAP1 POP JUMP JUMPDEST PUSH1 0x0 PUSH2 0x408 DUP3 PUSH2 0x3EB JUMP JUMPDEST SWAP1 POP SWAP2 SWAP1 POP JUMP JUMPDEST PUSH2 0x420 PUSH2 0x41B DUP3 PUSH2 0x2B9 JUMP JUMPDEST PUSH2 0x3FD JUMP JUMPDEST DUP3 MSTORE POP POP JUMP JUMPDEST PUSH1 0x0 PUSH2 0x432 DUP3 DUP5 PUSH2 0x40F JUMP JUMPDEST PUSH1 0x14 DUP3 ADD SWAP2 POP DUP2 SWAP1 POP SWAP3 SWAP2 POP POP JUMP JUMPDEST PUSH1 0x0 DUP2 MLOAD SWAP1 POP SWAP2 SWAP1 POP JUMP JUMPDEST PUSH1 0x0 DUP2 SWAP1 POP SWAP3 SWAP2 POP POP JUMP JUMPDEST PUSH1 0x0 JUMPDEST DUP4 DUP2 LT ISZERO PUSH2 0x475 JUMPI DUP1 DUP3 ADD MLOAD DUP2 DUP5 ADD MSTORE PUSH1 0x20 DUP2 ADD SWAP1 POP PUSH2 0x45A JUMP JUMPDEST DUP4 DUP2 GT ISZERO PUSH2 0x484 JUMPI PUSH1 0x0 DUP5 DUP5 ADD MSTORE JUMPDEST POP POP POP POP JUMP JUMPDEST PUSH1 0x0 PUSH2 0x495 DUP3 PUSH2 0x441 JUMP JUMPDEST PUSH2 0x49F DUP2 DUP6 PUSH2 0x44C JUMP JUMPDEST SWAP4 POP PUSH2 0x4AF DUP2 DUP6 PUSH1 0x20 DUP7 ADD PUSH2 0x457 JUMP JUMPDEST DUP1 DUP5 ADD SWAP2 POP POP SWAP3 SWAP2 POP POP JUMP JUMPDEST PUSH1 0x0 PUSH2 0x4C7 DUP3 DUP5 PUSH2 0x48A JUMP JUMPDEST SWAP2 POP DUP2 SWAP1 POP SWAP3 SWAP2 POP POP JUMP JUMPDEST PUSH1 0x0 DUP2 SWAP1 POP SWAP3 SWAP2 POP POP JUMP JUMPDEST PUSH32 0xFF00000000000000000000000000000000000000000000000000000000000000 PUSH1 0x0 DUP3 ADD MSTORE POP JUMP JUMPDEST PUSH1 0x0 PUSH2 0x513 PUSH1 0x1 DUP4 PUSH2 0x4D2 JUMP JUMPDEST SWAP2 POP PUSH2 0x51E DUP3 PUSH2 0x4DD JUMP JUMPDEST PUSH1 0x1 DUP3 ADD SWAP1 POP SWAP2 SWAP1 POP JUMP JUMPDEST PUSH1 0x0 DUP2 SWAP1 POP SWAP2 SWAP1 POP JUMP JUMPDEST PUSH1 0x0 DUP2 SWAP1 POP SWAP2 SWAP1 POP JUMP JUMPDEST PUSH2 0x54E PUSH2 0x549 DUP3 PUSH2 0x529 JUMP JUMPDEST PUSH2 0x533 JUMP JUMPDEST DUP3 MSTORE POP POP JUMP JUMPDEST PUSH1 0x0 PUSH2 0x55F DUP3 PUSH2 0x506 JUMP JUMPDEST SWAP2 POP PUSH2 0x56B DUP3 DUP7 PUSH2 0x40F JUMP JUMPDEST PUSH1 0x14 DUP3 ADD SWAP2 POP PUSH2 0x57B DUP3 DUP6 PUSH2 0x53D JUMP JUMPDEST PUSH1 0x20 DUP3 ADD SWAP2 POP PUSH2 0x58B DUP3 DUP5 PUSH2 0x53D JUMP JUMPDEST PUSH1 0x20 DUP3 ADD SWAP2 POP DUP2 SWAP1 POP SWAP5 SWAP4 POP POP POP POP JUMP INVALID PUSH1 0x80 PUSH1 0x40 MSTORE CALLVALUE DUP1 ISZERO PUSH2 0x10 JUMPI PUSH1 0x0 DUP1 REVERT JUMPDEST POP PUSH2 0x1F4 DUP1 PUSH2 0x20 PUSH1 0x0 CODECOPY PUSH1 0x0 RETURN INVALID PUSH1 0x80 PUSH1 0x40 MSTORE CALLVALUE DUP1 ISZERO PUSH2 0x10 JUMPI PUSH1 0x0 DUP1 REVERT JUMPDEST POP PUSH1 0x4 CALLDATASIZE LT PUSH2 0x2B JUMPI PUSH1 0x0 CALLDATALOAD PUSH1 0xE0 SHR DUP1 PUSH4 0x5487D54F EQ PUSH2 0x30 JUMPI JUMPDEST PUSH1 0x0 DUP1 REVERT JUMPDEST PUSH2 0x4A PUSH1 0x4 DUP1 CALLDATASIZE SUB DUP2 ADD SWAP1 PUSH2 0x45 SWAP2 SWAP1 PUSH2 0x154 JUMP JUMPDEST PUSH2 0x4C JUMP JUMPDEST STOP JUMPDEST DUP1 PUSH20 0xFFFFFFFFFFFFFFFFFFFFFFFFFFFFFFFFFFFFFFFF AND PUSH4 0x422BEEBA DUP4 PUSH1 0x40 MLOAD DUP3 PUSH4 0xFFFFFFFF AND PUSH1 0xE0 SHL DUP2 MSTORE PUSH1 0x4 ADD PUSH2 0x85 SWAP2 SWAP1 PUSH2 0x1A3 JUMP JUMPDEST PUSH1 0x0 PUSH1 0x40 MLOAD DUP1 DUP4 SUB DUP2 PUSH1 0x0 DUP8 DUP1 EXTCODESIZE ISZERO DUP1 ISZERO PUSH2 0x9F JUMPI PUSH1 0x0 DUP1 REVERT JUMPDEST POP GAS CALL ISZERO DUP1 ISZERO PUSH2 0xB3 JUMPI RETURNDATASIZE PUSH1 0x0 DUP1 RETURNDATACOPY RETURNDATASIZE PUSH1 0x0 REVERT JUMPDEST POP POP POP POP POP POP JUMP JUMPDEST PUSH1 0x0 DUP1 REVERT JUMPDEST PUSH1 0x0 DUP2 SWAP1 POP SWAP2 SWAP1 POP JUMP JUMPDEST PUSH2 0xD3 DUP2 PUSH2 0xC0 JUMP JUMPDEST DUP2 EQ PUSH2 0xDE JUMPI PUSH1 0x0 DUP1 REVERT JUMPDEST POP JUMP JUMPDEST PUSH1 0x0 DUP2 CALLDATALOAD SWAP1 POP PUSH2 0xF0 DUP2 PUSH2 0xCA JUMP JUMPDEST SWAP3 SWAP2 POP POP JUMP JUMPDEST PUSH1 0x0 PUSH20 0xFFFFFFFFFFFFFFFFFFFFFFFFFFFFFFFFFFFFFFFF DUP3 AND SWAP1 POP SWAP2 SWAP1 POP JUMP JUMPDEST PUSH1 0x0 PUSH2 0x121 DUP3 PUSH2 0xF6 JUMP JUMPDEST SWAP1 POP SWAP2 SWAP1 POP JUMP JUMPDEST PUSH2 0x131 DUP2 PUSH2 0x116 JUMP JUMPDEST DUP2 EQ PUSH2 0x13C JUMPI PUSH1 0x0 DUP1 REVERT JUMPDEST POP JUMP JUMPDEST PUSH1 0x0 DUP2 CALLDATALOAD SWAP1 POP PUSH2 0x14E DUP2 PUSH2 0x128 JUMP JUMPDEST SWAP3 SWAP2 POP POP JUMP JUMPDEST PUSH1 0x0 DUP1 PUSH1 0x40 DUP4 DUP6 SUB SLT ISZERO PUSH2 0x16B JUMPI PUSH2 0x16A PUSH2 0xBB JUMP JUMPDEST JUMPDEST PUSH1 0x0 PUSH2 0x179 DUP6 DUP3 DUP7 ADD PUSH2 0xE1 JUMP JUMPDEST SWAP3 POP POP PUSH1 0x20 PUSH2 0x18A DUP6 DUP3 DUP7 ADD PUSH2 0x13F JUMP JUMPDEST SWAP2 POP POP SWAP3 POP SWAP3 SWAP1 POP JUMP JUMPDEST PUSH2 0x19D DUP2 PUSH2 0xC0 JUMP JUMPDEST DUP3 MSTORE POP POP JUMP JUMPDEST PUSH1 0x0 PUSH1 0x20 DUP3 ADD SWAP1 POP PUSH2 0x1B8 PUSH1 0x0 DUP4 ADD DUP5 PUSH2 0x194 JUMP JUMPDEST SWAP3 SWAP2 POP POP JUMP INVALID LOG2 PUSH5 0x6970667358 0x22 SLT KECCAK256 SWAP16 0xE0 0x27 SWAP10 0xC5 SWAP5 SWAP2 0xED LOG2 0xE0 0xE4 EXTCODESIZE CREATE2 SWAP16 PUSH19 0xFE6B0B5E3AFFB14567A4E6C1F81BCD43F56473 PUSH16 0x6C634300080D0033A264697066735822 SLT KECCAK256 0xD8 SIGNEXTEND 0xE8 0x4E SDIV 0xA6 0xDB RETURN 0xCF CALLDATASIZE DUP10 PUSH23 0x69B8740A8115BF7E908913C18E811E1B8A6F7EC564736F PUSH13 0x634300080D0033000000000000 "
				},
				"gasEstimates": {
					"creation": {
						"codeDepositCost": "404400",
						"executionCost": "443",
						"totalCost": "404843"
					},
					"external": {
						"createTeacher()": "infinite",
						"setScore(uint256)": "infinite"
					}
				},
				"methodIdentifiers": {
					"createTeacher()": "a40c3f8c",
					"setScore(uint256)": "422beeba"
				}
			},
			"storageLayout": {
				"storage": [
					{
						"astId": 4,
						"contract": "w2-2/Score.sol:Score",
						"label": "_score",
						"offset": 0,
						"slot": "0",
						"type": "t_uint256"
					},
					{
						"astId": 6,
						"contract": "w2-2/Score.sol:Score",
						"label": "sender",
						"offset": 0,
						"slot": "1",
						"type": "t_address"
					}
				],
				"types": {
					"t_address": {
						"encoding": "inplace",
						"label": "address",
						"numberOfBytes": "20"
					},
					"t_uint256": {
						"encoding": "inplace",
						"label": "uint256",
						"numberOfBytes": "32"
					}
				}
			},
			"userdoc": {
				"kind": "user",
				"methods": {},
				"version": 1
			}
		}
	}
}